:020000040800F2
:10000000002800206D0F0008FD0E0008030F0008F7
:10001000090F00080F0F0008150F0008000000006E
:100020000000000000000000000000001B0F00089E
:10003000270F000800000000330F00083F0F0008E2
:10004000B50F0008B50F0008B50F0008B50F000880
:10005000B50F0008B50F0008B50F0008B50F000870
:10006000B50F0008B50F0008B50F0008B50F000860
:10007000B50F0008B50F0008B50F0008B50F000850
:10008000B50F0008B50F0008B50F0008B50F000840
:10009000B50F0008B50F0008B50F0008B50F000830
:1000A000B50F0008B50F0008B50F0008B50F000820
:1000B0004D0F0008B50F000800000000B50F000844
:1000C000B50F00080000000000000000B50F000898
:1000D00000000000B50F0008B50F00080000000088
:1000E000B50F0008B50F0008B50F000800000000AC
:1000F0000000000000000000000000000000000000
:0C01000000000000000000005FF808F1A3
:10010C0010B5054C237833B9044B13B10448AFF345
:10011C0000800123237010BD180000200000000097
:10012C00B825000808B5034B1BB103490348AFF3CE
:10013C00008008BD000000001C000020B82500084D
:10014C0080B483B000AF7860074B1B687A6892FB71
:10015C00F3F3064A1360064B00221A6000BF0C37FB
:10016C00BD4680BC704700BF00000020340000205A
:10017C003800002080B483B000AF7860074B1B6858
:10018C007A6892FBF3F3064A1360064B00221A605E
:10019C0000BF0C37BD4680BC704700BF000000207C
:1001AC003C0000204000002080B483B000AF786099
:1001BC00074B1B687A6892FBF3F3064A1360064BF5
:1001CC0000221A6000BF0C37BD4680BC704700BFD0
:1001DC0000000020440000204800002080B400AF44
:1001EC00194B1B68002B0BDD174B1B68013B164A88
:1001FC001360154B1B68002B02D1144B01221A60A3
:10020C00134B1B68002B0BDD114B1B68013B104A79
:10021C0013600F4B1B68002B02D10E4B01221A608E
:10022C000D4B1B68002B0BDD0B4B1B68013B0A4A6B
:10023C001360094B1B68002B02D1084B01221A607A
:10024C0000BFBD4680BC7047340000203800002041
:10025C003C0000204000002044000020480000200A
:10026C0080B582B000AF78607B68032B66D801A2A2
:10027C0052F823F091020008BF020008ED020008BA
:10028C001B030008002240212F4801F079F90122BC
:10029C0080212D4801F074F901224FF480712A4815
:1002AC0001F06EF901224FF40071274801F068F952
:1002BC0045E001224021244801F062F9002280210E
:1002CC00214801F05DF901224FF480711E4801F0C4
:1002DC0057F901224FF400711B4801F051F92EE03F
:1002EC0001224021184801F04BF9012280211648C7
:1002FC0001F046F900224FF48071134801F040F9E7
:10030C0001224FF40071104801F03AF917E0012274
:10031C0040210D4801F034F9012280210A4801F0F6
:10032C002FF901224FF48071074801F029F90022BE
:10033C004FF40071044801F023F900E000BF00BF46
:10034C000837BD4680BD00BF0008014080B582B0B3
:10035C0000AF78607B68012B23D101220121C248B8
:10036C0001F00EF900220221BF4801F009F9002228
:10037C000421BD4801F004F901220821BA4801F01A
:10038C00FFF801221021B84801F0FAF801222021CF
:10039C00B54801F0F5F801224021B34801F0F0F81E
:1003AC005EE17B68022B23D100220121AE4801F0D3
:1003BC00E7F800220221AC4801F0E2F80122042106
:1003CC00A94801F0DDF800220821A74801F0D8F86F
:1003DC0000221021A44801F0D3F801222021A248C8
:1003EC0001F0CEF8002240219F4801F0C9F837E116
:1003FC007B68032B23D1002201219B4801F0C0F81C
:10040C0000220221984801F0BBF8002204219648F2
:10041C0001F0B6F800220821934801F0B1F801224E
:10042C001021914801F0ACF8012220218E4801F0F6
:10043C00A7F8002240218C4801F0A2F810E17B685B
:10044C00002B23D100220121874801F099F80022CA
:10045C000221854801F094F800220421824801F021
:10046C008FF800220821804801F08AF80022102120
:10047C007D4801F085F8002220217B4801F080F8AE
:10048C0001224021784801F07BF8E9E07B68042BDD
:10049C0023D101220121744801F072F800220221BB
:1004AC00714801F06DF8002204216F4801F068F8E2
:1004BC00012208216C4801F063F8012210216A48DE
:1004CC0001F05EF800222021674801F059F8002263
:1004DC004021654801F054F8C2E07B68052B23D11C
:1004EC0000220121604801F04BF8012202215E48F4
:1004FC0001F046F8002204215B4801F041F800228B
:10050C000821594801F03CF801221021564801F00D
:10051C0037F800222021544801F032F80022402103
:10052C00514801F02DF89BE07B68062B23D100226B
:10053C0001214D4801F024F8012202214A4801F022
:10054C001FF800220421484801F01AF80022082163
:10055C00454801F015F800221021434801F010F82D
:10056C0000222021404801F00BF8002240213E4897
:10057C0001F006F874E07B68072B23D100220121DF
:10058C00394800F0FDFF00220221374800F0F8FF47
:10059C0000220421344800F0F3FF012208213248E4
:1005AC0000F0EEFF012210212F4800F0E9FF01229C
:1005BC0020212D4800F0E4FF012240212A4800F0C0
:1005CC00DFFF4DE07B68082B23D100220121264858
:1005DC0000F0D6FF00220221234800F0D1FF0022B8
:1005EC000421214800F0CCFF002208211E4800F015
:1005FC00C7FF002210211C4800F0C2FF002220215E
:10060C00194800F0BDFF00224021174800F0B8FF48
:10061C0026E07B68092B23D100220121124800F02F
:10062C00AFFF00220221104800F0AAFF0022042193
:10063C000D4800F0A5FF002208210B4800F0A0FF98
:10064C0001221021084800F09BFF002220210648BF
:10065C0000F096FF00224021034800F091FF00BFFC
:10066C000837BD4680BD00BF000C014080B483B08C
:10067C0000AF786039607B68184A82FB03129210D5
:10068C00DB17D31A164A13607968144B83FB0123CA
:10069C009A10CB17D21A13469B0013445B00CA1A4C
:1006AC000F4B5A603B680D4A82FB03129210DB170A
:1006BC00D31A0B4A93603968084B83FB01239A10B9
:1006CC00CB17D21A13469B0013445B00CA1A044B77
:1006DC00DA6000BF0C37BD4680BC70476766666643
:1006EC004C00002080B582B000AF78607B68072B8F
:1006FC0000F2B08101A252F823F000BF29070008D4
:10070C00AB0700082D0800085F080008C1080008A6
:10071C00230900085D090008DF0900088A4B1B78D3
:10072C009BB201221946894800F02AFF864B5B7860
:10073C009BB201221946854800F022FF824B9B7820
:10074C009BB201221946814800F01AFF7E4BDB78E0
:10075C009BB2012219467D4800F012FF7A4B1B799F
:10076C009BB201221946794800F00AFF764B5B795F
:10077C009BB201221946754800F002FF724B9B791F
:10078C009BB201221946714800F0FAFE6E4BDB79E0
:10079C009BB2012219466D4800F0F2FE5BE16A4BF8
:1007AC001B789BB201221946684800F0E9FE664BA3
:1007BC005B789BB201221946644800F0E1FE624B63
:1007CC009B789BB201221946604800F0D9FE5E4B23
:1007DC00DB789BB2012219465C4800F0D1FE5A4BE3
:1007EC001B799BB201221946584800F0C9FE564BA2
:1007FC005B799BB201221946544800F0C1FE524B62
:10080C009B799BB201221946504800F0B9FE4E4B21
:10081C00DB799BB2012219464C4800F0B1FE1AE17B
:10082C00494B1B789BB201221946484800F0A8FEA0
:10083C00454B5B789BB201221946444800F0A0FE60
:10084C00414BDB799BB201221946404800F098FEDF
:10085C0001E13D4B1B789BB2012219463B4800F04D
:10086C008FFE394B9B789BB201221946374800F01A
:10087C0087FE354BDB789BB201221946334800F0DA
:10088C007FFE314B5B799BB2012219462F4800F059
:10089C0077FE2D4B9B799BB2012219462B4800F019
:1008AC006FFE294BDB799BB201221946274800F0D9
:1008BC0067FED0E0244B1B789BB2012219462348DB
:1008CC0000F05EFE204B9B789BB2012219461F481C
:1008DC0000F056FE1C4BDB789BB2012219461B48DC
:1008EC0000F04EFE184B5B799BB20122194617485B
:1008FC0000F046FE144B9B799BB20122194613481B
:10090C0000F03EFE104BDB799BB2012219460F48DA
:10091C0000F036FE9FE00C4B1B789BB2012219466F
:10092C000A4800F02DFE084B5B789BB20122194659
:10093C00064800F025FE044BDB799BB201221946D8
:10094C00024800F01DFE86E004000020000C01406F
:10095C00434B1B789BB201221946424800F010FE13
:10096C003F4B5B789BB2012219463E4800F008FED3
:10097C003B4B9B789BB2012219463A4800F000FE93
:10098C00374BDB789BB201221946364800F0F8FD54
:10099C00334B1B799BB201221946324800F0F0FD13
:1009AC002F4B5B799BB2012219462E4800F0E8FDD3
:1009BC002B4B9B799BB2012219462A4800F0E0FD93
:1009CC00274BDB799BB201221946264800F0D8FD53
:1009DC0041E0234B1B789BB201221946214800F0C1
:1009EC00CFFD1F4B5B789BB2012219461D4800F0CE
:1009FC00C7FD1B4B9B789BB201221946194800F08E
:100A0C00BFFD174BDB789BB201221946154800F04D
:100A1C00B7FD134B1B799BB201221946114800F00C
:100A2C00AFFD0F4B5B799BB2012219460D4800F0CC
:100A3C00A7FD0B4B9B799BB201221946094800F08C
:100A4C009FFD074BDB799BB201221946054800F04C
:100A5C0097FD00E000BF00BF0837BD4680BD00BF5A
:100A6C0004000020000C014080B582B000AF0023D0
:100A7C007B600DE04FF480727B6802FA03F39BB24B
:100A8C0000221946154800F07BFD7B6801337B6022
:100A9C007B68072BEEDD01220421114800F070FD6C
:100AAC00012208210E4800F06BFD00233B600DE095
:100ABC004FF480623B6802FA03F39BB201221946A1
:100ACC00074800F05DFD3B6801333B603B68052B3C
:100ADC00EEDD00BF00BF0837BD4680BD000C0140F5
:100AEC000008014080B582B000AF7860FFF776FB5C
:100AFC0000BF0837BD4680BD80B584B000AF00F0A4
:100B0C0055FA00F0BBF800F041F900F0F3F8544846
:100B1C0001F094F90F23FB601223BB6032237B603E
:100B2C00B968F868FFF7A2FD00233B604FF47A70B8
:100B3C00FFF706FBFA20FFF71DFB0220FFF734FB43
:100B4C00484B1B68012B27D14FF47A70FFF7F8FA4A
:100B5C007B6801337B607B683B2B04DD00237B606F
:100B6C00BB680133BB60BB683B2B04DD0023BB605F
:100B7C00FB680133FB60FB68172B01DD0023FB6076
:100B8C00B968F868FFF772FD2021374800F010FDB6
:100B9C001021354800F00CFD344B1B68012B56D14D
:100BAC00FA20FFF7E7FA324A3B6852F8233018462E
:100BBC00FFF7CCFB3868FFF753FB3B6801333B6016
:100BCC003B68032B01DD00233B602A4B1B6808228A
:100BDC00934204DB274B00221A60FFF745FF254B9D
:100BEC001B68012B17DCFFF73FFF224B1B6804220D
:100BFC0002FA03F39BB2002219461B4800F0C0FC1A
:100C0C001C4B1B681846FFF76DFD1A4B1B68013314
:100C1C00184A13601BE0174B1B68012B17DDFFF7FD
:100C2C0023FF144B1B680633042202FA03F39BB216
:100C3C00002219460C4800F0A3FC0E4B1B6818460A
:100C4C00FFF750FD0B4B1B6801330A4A13600A4B2C
:100C5C001B68012B7FF474AF0220FFF7A5FA6FE736
:100C6C0060000020380000200008014040000020F7
:100C7C004C0000205C0000204800002080B590B0A3
:100C8C0000AF07F1180328220021184601F086FC5A
:100C9C003B1D00221A605A609A60DA601A610223C6
:100CAC00BB610123BB621023FB6200237B6307F152
:100CBC001803184600F096FC0346002B01D000F0F8
:100CCC00BBF80F237B600023BB600023FB60002379
:100CDC003B6100237B613B1D0021184600F002FFA5
:100CEC000346002B01D000F0A7F800BF4037BD46EB
:100CFC0080BD000080B586B000AF07F1080300226C
:100D0C001A605A609A60DA603B4600221A605A6098
:100D1C001D4B4FF080421A601B4B41F63F725A60DC
:100D2C00194B00229A60184B0922DA60164B0022EC
:100D3C001A61154B00229A61134801F02FF80346F3
:100D4C00002B01D000F078F84FF48053BB6007F112
:100D5C00080319460C4801F0ADF90346002B01D0ED
:100D6C0000F06AF800233B6000237B603B46194689
:100D7C00054801F085FB0346002B01D000F05CF820
:100D8C0000BF1837BD4680BD6000002080B586B01E
:100D9C0000AF07F1080300221A605A609A60DA600B
:100DAC00224B9B69214A43F0040393611F4B9B69BF
:100DBC0003F004037B607B681C4B9B691B4A43F06C
:100DCC0008039361194B9B6903F008033B603B6874
:100DDC0000224FF6FC71164800F0D2FB00224FF6B1
:100DEC007F71144800F0CCFB4FF6FC73BB60012301
:100DFC00FB6000233B6102237B6107F1080319466A
:100E0C000B4800F043FA4FF67F73BB600123FB6085
:100E1C0000233B6102237B6107F108031946054857
:100E2C0000F034FA00BF1837BD4680BD00100240F8
:100E3C0000080140000C014080B400AF72B600BF46
:100E4C00FEE7000080B485B000AF154B9B69144AD7
:100E5C0043F001039361124B9B6903F00103BB60E8
:100E6C00BB680F4BDB690E4A43F08053D3610C4BCC
:100E7C00DB6903F080537B607B680A4B5B68FB602B
:100E8C00FB6823F0E063FB60FB6843F08063FB606E
:100E9C00044AFB68536000BF1437BD4680BC7047E2
:100EAC00001002400000014080B584B000AF7860B3
:100EBC007B681B68B3F1804F13D10C4BDB690B4A79
:100ECC0043F00103D361094BDB6903F00103FB60C1
:100EDC00FB68002200211C2000F0A1F91C2000F06E
:100EEC00BAF900BF1037BD4680BD00BF00100240EC
:100EFC0080B400AFFEE780B400AFFEE780B400AF73
:100F0C00FEE780B400AFFEE780B400AFFEE780B42C
:100F1C0000AF00BFBD4680BC704780B400AF00BFBF
:100F2C00BD4680BC704780B400AF00BFBD4680BCDE
:100F3C00704780B500AF00F07FF800BF80BD0000A7
:100F4C0080B500AF024800F0C5FF00BF80BD00BFF8
:100F5C006000002080B400AF00BFBD4680BC70476D
:100F6C00FFF7F8FF0B480C490C4A002302E0D45859
:100F7C00C4500433C4188C42F9D3094A094C0023D9
:100F8C0001E013600432A242FBD301F0E3FAFFF755
:100F9C00B3FD70470000002018000020FC2500085D
:100FAC0018000020AC000020FEE7000080B500AF68
:100FBC00084B1B68074A43F010031360032000F032
:100FCC0023F90F2000F008F8FFF73CFF0023184628
:100FDC0080BD00BF0020024080B582B000AF7860B9
:100FEC00124B1A68124B1B7819464FF47A73B3FBE9
:100FFC00F1F3B2FBF3F3184600F03BF90346002B78
:10100C0001D001230EE07B680F2B0AD800227968EF
:10101C004FF0FF3000F003F9064A7B6813600023A1
:10102C0000E0012318460837BD4680BD0C000020A7
:10103C00140000201000002080B400AF054B1B787A
:10104C001A46054B1B681344034A136000BFBD4688
:10105C0080BC704714000020A800002080B400AFB2
:10106C00024B1B681846BD4680BC7047A800002088
:10107C0080B485B000AF78607B6803F00703FB6039
:10108C000C4BDB68BB60BA684FF6FF031340BB60C8
:10109C00FB681A02BB68134343F0BF6343F400338D
:1010AC00BB60044ABB68D36000BF1437BD4680BC2C
:1010BC00704700BF00ED00E080B400AF044BDB686C
:1010CC001B0A03F007031846BD4680BC704700BFDF
:1010DC0000ED00E080B483B000AF0346FB7197F9DC
:1010EC000730002B0BDBFB7903F01F02064997F945
:1010FC0007305B09012000FA02F241F8232000BFFF
:10110C000C37BD4680BC704700E100E080B483B072
:10111C0000AF03463960FB7197F90730002B0ADBEF
:10112C003B68DAB20C4997F907301201D2B20B4482
:10113C0083F800230AE03B68DAB20849FB7903F034
:10114C000F03043B1201D2B20B441A7600BF0C37CA
:10115C00BD4680BC704700BF00E100E000ED00E040
:10116C0080B489B000AFF860B9607A60FB6803F0B6
:10117C000703FB61FB69C3F10703042B28BF04239E
:10118C00BB61FB690433062B02D9FB69033B00E00E
:10119C0000237B614FF0FF32BB6902FA03F3DA43A1
:1011AC00BB681A407B699A404FF0FF317B6901FAAA
:1011BC0003F3D9437B680B40134318462437BD46D1
:1011CC0080BC704780B582B000AF78607B68013B13
:1011DC00B3F1807F01D301230FE00A4A7B68013B06
:1011EC0053600F214FF0FF30FFF790FF054B0022AB
:1011FC009A60044B07221A60002318460837BD4634
:10120C0080BD00BF10E000E080B582B000AF786018
:10121C007868FFF72DFF00BF0837BD4680BD80B54D
:10122C0086B000AF0346B9607A60FB7300237B6124
:10123C00FFF742FF78617A68B9687869FFF790FF29
:10124C00024697F90F3011461846FFF75FFF00BFB3
:10125C001837BD4680BD80B582B000AF0346FB7128
:10126C0097F907301846FFF735FF00BF0837BD4622
:10127C0080BD80B582B000AF78607868FFF7A2FFC0
:10128C00034618460837BD4680BD000080B48BB0BD
:10129C0000AF7860396000237B6200233B6248E139
:1012AC0001227B6A02FA03F3FB613B681B68FA6953
:1012BC001340BB61BA69FB699A4240F037813B68C5
:1012CC005B68A34A93425ED0A14A934275D8A14A67
:1012DC00934258D09F4A93426FD89F4A934252D020
:1012EC009D4A934269D89D4A93424CD09B4A934263
:1012FC0063D89B4A934246D0994A93425DD8122BAD
:10130C002AD8122B59D801A252F823F093130008B3
:10131C006D1300087F130008C1130008C7130008E1
:10132C00C7130008C7130008C7130008C713000829
:10133C00C7130008C7130008C7130008C713000819
:10134C00C7130008C7130008C7130008C713000809
:10135C007513000889130008824A934213D02CE0BD
:10136C003B68DB683B6229E03B68DB6804333B622B
:10137C0024E03B68DB6808333B621FE03B68DB68BA
:10138C000C333B621AE03B689B68002B02D10423B0
:10139C003B6213E03B689B68012B05D108233B6241
:1013AC007B68FA691A6109E008233B627B68FA6979
:1013BC005A6103E000233B6200E000BFBB69FF2BD6
:1013CC0001D87B6801E07B6804337B61BB69FF2B30
:1013DC0002D87B6A9B0002E07B6A083B9B003B6166
:1013EC007B691A680F213B6901FA03F3DB431A404E
:1013FC00396A3B6901FA03F31A437B691A603B684B
:10140C005B6803F08053002B00F09080564B9B6977
:10141C00554A43F001039361534B9B6903F001035D
:10142C00BB60BB68514A7B6A9B08023352F823307D
:10143C00FB607B6A03F003039B000F2202FA03F3A9
:10144C00DB43FA681340FB607B68494A93420DD03A
:10145C007B68484A934207D07B68474A934201D144
:10146C00022304E0032302E0012300E000237A6A54
:10147C0002F0030292009340FA681343FB603B496D
:10148C007B6A9B080233FA6841F823203B685B684F
:10149C0003F48013002B06D0384B9A683749BB698C
:1014AC0013438B6006E0354B9A68BB69DB433349C9
:1014BC0013408B603B685B6803F40013002B06D071
:1014CC002E4BDA682D49BB691343CB6006E02B4BDE
:1014DC00DA68BB69DB4329491340CB603B685B6826
:1014EC0003F40033002B06D0244B5A682349BB6904
:1014FC0013434B6006E0214B5A68BB69DB431F4921
:10150C0013404B603B685B6803F48033002B06D0C0
:10151C001A4B1A681949BB6913430B6006E0174B49
:10152C001A68BB69DB43154913400B607B6A0133B6
:10153C007B623B681A687B6A22FA03F3002B7FF408
:10154C00AFAE00BF00BF2C37BD4680BC704700BF9C
:10155C000000321000003110000022100000211099
:10156C000000121000001110001002400000014099
:10157C0000080140000C0140001001400004014033
:10158C0080B483B000AF78600B467B8013467B70D1
:10159C007B78002B03D07A887B681A6103E07B8808
:1015AC001A047B681A6100BF0C37BD4680BC7047BB
:1015BC0080B485B000AF78600B467B807B68DB68BD
:1015CC00FB607A88FB6813401A04FB68D9437B885C
:1015DC000B401A437B681A6100BF1437BD4680BCB0
:1015EC007047000080B586B000AF78607B68002B38
:1015FC0001D101236CE27B681B6803F00103002B13
:10160C0000F08780924B5B6803F00C03042B0CD02A
:10161C008F4B5B6803F00C03082B12D18C4B5B686F
:10162C0003F48033B3F5803F0BD1894B1B6803F473
:10163C000033002B6CD07B685B68002B68D10123D6
:10164C0046E27B685B68B3F5803F06D1804B1B6834
:10165C007F4A43F4803313602EE07B685B68002B79
:10166C000CD17B4B1B687A4A23F480331360784B84
:10167C001B68774A23F4802313601DE07B685B684A
:10168C00B3F5A02F0CD1724B1B68714A43F4802325
:10169C0013606F4B1B686E4A43F4803313600BE08E
:1016AC006B4B1B686A4A23F480331360684B1B68CE
:1016BC00674A23F4802313607B685B68002B13D08C
:1016CC00FFF7CCFC386108E0FFF7C8FC02463B6929
:1016DC00D31A642B01D90323FAE15D4B1B6803F485
:1016EC000033002BF0D014E0FFF7B8FC386108E0B1
:1016FC00FFF7B4FC02463B69D31A642B01D90323D0
:10170C00E6E1534B1B6803F40033002BF0D100E0EF
:10171C0000BF7B681B6803F00203002B63D04C4BAB
:10172C005B6803F00C03002B0BD0494B5B6803F098
:10173C000C03082B1CD1464B5B6803F48033002B45
:10174C0016D1434B1B6803F00203002B05D07B68BA
:10175C001B69012B01D00123BAE13D4B1B6823F01F
:10176C00F8027B685B69DB00394913430B603AE094
:10177C007B681B69002B20D0364B01221A60FFF7C7
:10178C006DFC386108E0FFF769FC02463B69D31A2F
:10179C00022B01D903239BE12D4B1B6803F00203A1
:1017AC00002BF0D02A4B1B6823F0F8027B685B6996
:1017BC00DB00274913430B6015E0264B00221A600F
:1017CC00FFF74CFC386108E0FFF748FC02463B6928
:1017DC00D31A022B01D903237AE11D4B1B6803F0AA
:1017EC000203002BF0D17B681B6803F00803002B6D
:1017FC003AD07B689B69002B19D0174B01221A60D9
:10180C00FFF72CFC386108E0FFF728FC02463B6927
:10181C00D31A022B01D903235AE10D4B5B6A03F057
:10182C000203002BF0D0012000F09AFA1CE00A4BC6
:10183C0000221A60FFF712FC38610FE0FFF70EFC74
:10184C0002463B69D31A022B08D9032340E100BF9F
:10185C000010024000004242800442429E4B5B6AF0
:10186C0003F00203002BE9D17B681B6803F004032F
:10187C00002B00F0A6800023FB75974BDB6903F06F
:10188C008053002B0DD1944BDB69934A43F080536A
:10189C00D361914BDB6903F08053BB60BB680123C0
:1018AC00FB758E4B1B6803F48073002B18D18B4B8C
:1018BC001B688A4A43F480731360FFF7CFFB3861CF
:1018CC0008E0FFF7CBFB02463B69D31A642B01D926
:1018DC000323FDE0814B1B6803F48073002BF0D0D5
:1018EC007B68DB68012B06D17B4B1B6A7A4A43F081
:1018FC00010313622DE07B68DB68002B0CD1764B67
:10190C001B6A754A23F001031362734B1B6A724AFC
:10191C0023F0040313621CE07B68DB68052B0CD1FD
:10192C006D4B1B6A6C4A43F0040313626A4B1B6ACF
:10193C00694A43F0010313620BE0674B1B6A664A6A
:10194C0023F001031362644B1B6A634A23F0040304
:10195C0013627B68DB68002B15D0FFF77FFB3861C7
:10196C000AE0FFF77BFB02463B69D31A41F288324F
:10197C00934201D90323ABE0574B1B6A03F00203DC
:10198C00002BEED014E0FFF769FB38610AE0FFF79B
:10199C0065FB02463B69D31A41F28832934201D966
:1019AC00032395E04C4B1B6A03F00203002BEED192
:1019BC00FB7D012B05D1484BDB69474A23F0805353
:1019CC00D3617B68DB69002B00F08180424B5B6844
:1019DC0003F00C03082B61D07B68DB69022B46D12A
:1019EC003F4B00221A60FFF739FB386108E0FFF724
:1019FC0035FB02463B69D31A022B01D9032367E05E
:101A0C00354B1B6803F00073002BF0D17B681B6A0D
:101A1C00B3F5803F08D1304B5B6823F400327B6810
:101A2C009B682D4913434B602B4B5B6823F474125A
:101A3C007B68196A7B685B6A0B43274913434B60CD
:101A4C00274B01221A60FFF709FB386108E0FFF70A
:101A5C0005FB02463B69D31A022B01D9032337E05D
:101A6C001D4B1B6803F00073002BF0D02FE01C4BB8
:101A7C0000221A60FFF7F2FA386108E0FFF7EEFA7D
:101A8C0002463B69D31A022B01D9032320E0124BE7
:101A9C001B6803F00073002BF0D118E07B68DB6946
:101AAC00012B01D1012313E00B4B5B68FB60FB683E
:101ABC0003F480327B681B6A9A4206D1FB6803F4FC
:101ACC0070127B685B6A9A4201D0012300E000230C
:101ADC0018461837BD4680BD00100240007000400B
:101AEC006000424280B584B000AF786039607B689A
:101AFC00002B01D10123D0E06A4B1B6803F00703D4
:101B0C003A689A4210D9674B1B6823F00702654963
:101B1C003B6813430B60634B1B6803F007033A6885
:101B2C009A4201D00123B8E07B681B6803F00203E2
:101B3C00002B20D07B681B6803F00403002B05D01E
:101B4C00594B5B68584A43F4E06353607B681B68ED
:101B5C0003F00803002B05D0534B5B68524A43F447
:101B6C0060535360504B5B6823F0F0027B689B68BA
:101B7C004D4913434B607B681B6803F00103002B3A
:101B8C0040D07B685B68012B07D1474B1B6803F483
:101B9C000033002B15D101237FE07B685B68022B9F
:101BAC0007D1414B1B6803F00073002B09D10123B3
:101BBC0073E03D4B1B6803F00203002B01D10123A2
:101BCC006BE0394B5B6823F003027B685B6836493A
:101BDC0013434B60FFF742FAF8600AE0FFF73EFA56
:101BEC000246FB68D31A41F28832934201D903238F
:101BFC0053E02D4B5B6803F00C027B685B689B0029
:101C0C009A42EBD1274B1B6803F007033A689A42C0
:101C1C0010D2244B1B6823F0070222493B68134364
:101C2C000B60204B1B6803F007033A689A4201D003
:101C3C00012332E07B681B6803F00403002B08D0FF
:101C4C00194B5B6823F4E0627B68DB68164913432D
:101C5C004B607B681B6803F00803002B09D0124B08
:101C6C005B6823F460527B681B69DB000E491343ED
:101C7C004B6000F021F802460B4B5B681B0903F02C
:101C8C000F030A49CB5C22FA03F3094A1360094B90
:101C9C001B681846FFF7A0F9002318461037BD46FD
:101CAC0080BD00BF0020024000100240D02500087B
:101CBC000C0000201000002080B487B000AF00237F
:101CCC00FB600023BB6000237B6100237B6000234F
:101CDC003B611E4B5B68FB60FB6803F00C03042B41
:101CEC0002D0082B03D027E0194B3B6127E0FB689F
:101CFC009B0C03F00F03174AD35C7B60FB6803F467
:101D0C008033002B10D0114B5B685B0C03F001038C
:101D1C00114AD35CBB607B680D4A02FB03F2BB68C3
:101D2C00B2FBF3F37B6104E07B680C4A02FB03F328
:101D3C007B617B693B6102E0054B3B6100BF3B690A
:101D4C0018461C37BD4680BC704700BF00100240CF
:101D5C0000127A00E0250008F025000800093D007B
:101D6C0080B485B000AF78600A4B1B680A4AA2FBAE
:101D7C0003235B0A7A6802FB03F3FB6000BFFB687A
:101D8C005A1EFA60002BF9D100BF00BF1437BD46B4
:101D9C0080BC70470C000020D34D621080B582B01F
:101DAC0000AF78607B68002B01D1012341E07B6898
:101DBC0093F83D30DBB2002B06D17B68002283F810
:101DCC003C207868FFF770F87B68022283F83D208E
:101DDC007B681A687B6804331946104600F056FA83
:101DEC007B68012283F846207B68012283F83E2021
:101DFC007B68012283F83F207B68012283F8402016
:101E0C007B68012283F841207B68012283F8422001
:101E1C007B68012283F843207B68012283F84420ED
:101E2C007B68012283F845207B68012283F83D20E2
:101E3C00002318460837BD4680BD000080B485B02D
:101E4C0000AF78607B6893F83D30DBB2012B01D09A
:101E5C00012335E07B68022283F83D207B681B68F8
:101E6C00DA687B681B6842F00102DA607B681B68E9
:101E7C00164A934209D07B681B68B3F1804F04D09B
:101E8C007B681B68124A934211D17B681B689B6864
:101E9C0003F00703FB60FB68062B10D07B681B6804
:101EAC001A687B681B6842F001021A6007E07B68C5
:101EBC001B681A687B681B6842F001021A600023D9
:101ECC0018461437BD4680BC704700BF002C01403B
:101EDC000004004080B584B000AF78607B681B685C
:101EEC00DB68FB607B681B681B69BB60BB6803F02D
:101EFC000203002B20D0FB6803F00203002B1BD045
:101F0C007B681B686FF002021A617B6801221A77EA
:101F1C007B681B689B6903F00303002B03D0786874
:101F2C0000F098F905E0786800F08BF9786800F01B
:101F3C009AF97B6800221A77BB6803F00403002B24
:101F4C0020D0FB6803F00403002B1BD07B681B68BC
:101F5C006FF004021A617B6802221A777B681B6897
:101F6C009B6903F44073002B03D0786800F072F97E
:101F7C0005E0786800F065F9786800F074F97B6822
:101F8C0000221A77BB6803F00803002B20D0FB68F3
:101F9C0003F00803002B1BD07B681B686FF0080252
:101FAC001A617B6804221A777B681B68DB6903F073
:101FBC000303002B03D0786800F04CF905E0786837
:101FCC0000F03FF9786800F04EF97B6800221A7730
:101FDC00BB6803F01003002B20D0FB6803F0100348
:101FEC00002B1BD07B681B686FF010021A617B689A
:101FFC0008221A777B681B68DB6903F44073002B9B
:10200C0003D0786800F026F905E0786800F019F93B
:10201C00786800F028F97B6800221A77BB6803F017
:10202C000103002B0CD0FB6803F00103002B07D03D
:10203C007B681B686FF001021A617868FEF752FD2D
:10204C00BB6803F08003002B0CD0FB6803F080030B
:10205C00002B07D07B681B686FF080021A617868D0
:10206C0000F06FFABB6803F04003002B0CD0FB6848
:10207C0003F04003002B07D07B681B686FF0400215
:10208C001A61786800F0F8F8BB6803F02003002BA5
:10209C000CD0FB6803F02003002B07D07B681B6877
:1020AC006FF020021A61786800F042FA00BF103716
:1020BC00BD4680BD80B584B000AF78603960002328
:1020CC00FB737B6893F83C30012B01D10223B4E005
:1020DC007B68012283F83C207B68022283F83D2038
:1020EC007B681B689B68BB60BB6823F07703BB6095
:1020FC00BB6823F47F43BB607B681B68BA689A603B
:10210C003B681B68B3F5005F3ED0B3F5005F00F28F
:10211C008780B3F5805F00F08680B3F5805F7FD851
:10212C00702B1AD0702B7BD8602B50D0602B77D8AB
:10213C00502B3CD0502B73D8402B58D0402B6FD801
:10214C00302B64D0302B6BD8202B60D0202B67D851
:10215C00002B5CD0102B5AD062E07B6818683B686F
:10216C0099683B685A683B68DB6800F06AF97B68E1
:10217C001B689B68BB60BB6843F07703BB607B68E4
:10218C001B68BA689A604FE07B6818683B6899686E
:10219C003B685A683B68DB6800F053F97B681B6846
:1021AC009A687B681B6842F480429A603CE07B68CA
:1021BC0018683B6859683B68DB681A4600F0CAF837
:1021CC007B681B685021184600F021F92CE07B68D5
:1021DC0018683B6859683B68DB681A4600F0E8F8F9
:1021EC007B681B686021184600F011F91CE07B68C5
:1021FC0018683B6859683B68DB681A4600F0AAF817
:10220C007B681B684021184600F001F90CE07B68E4
:10221C001A683B681B681946104600F0F8F803E092
:10222C000123FB7300E000BF7B68012283F83D2093
:10223C007B68002283F83C20FB7B18461037BD4698
:10224C0080BD80B483B000AF786000BF0C37BD4652
:10225C0080BC704780B483B000AF786000BF0C378F
:10226C00BD4680BC704780B483B000AF786000BFBF
:10227C000C37BD4680BC704780B483B000AF78602B
:10228C0000BF0C37BD4680BC7047000080B485B0E1
:10229C0000AF786039607B681B68FB607B682B4AF9
:1022AC00934207D07B68B3F1804F03D07B68284AF8
:1022BC00934208D1FB6823F07003FB603B685B68BA
:1022CC00FA681343FB607B68204A934207D07B6813
:1022DC00B3F1804F03D07B681D4A934208D1FB6851
:1022EC0023F44073FB603B68DB68FA681343FB60C4
:1022FC00FB6823F080023B685B691343FB607B68DF
:10230C00FA681A603B689A687B68DA623B681A68FC
:10231C007B689A627B680D4A934203D13B681A69C9
:10232C007B681A637B6801225A617B681B6903F026
:10233C000103002B05D07B681B6923F001027B682D
:10234C001A6100BF1437BD4680BC7047002C014099
:10235C000004004080B487B000AFF860B9607A60C8
:10236C00FB681B6A7B61FB681B6A23F00102FB683C
:10237C001A62FB689B693B613B6923F0F0033B618C
:10238C007B681B013A6913433B617B6923F00A03A9
:10239C007B617A69BB6813437B61FB683A699A611C
:1023AC00FB687A691A6200BF1C37BD4680BC704757
:1023BC0080B487B000AFF860B9607A60FB681B6AC4
:1023CC007B61FB681B6A23F01002FB681A62FB68D6
:1023DC009B693B613B6923F470433B617B681B0346
:1023EC003A6913433B617B6923F0A0037B61BB68B3
:1023FC001B017A6913437B61FB683A699A61FB683C
:10240C007A691A6200BF1C37BD4680BC704780B425
:10241C0085B000AF786039607B689B68FB60FB68B7
:10242C0023F07003FB603A68FB68134343F0070327
:10243C00FB607B68FA689A6000BF1437BD4680BCAD
:10244C00704780B487B000AFF860B9607A603B60C9
:10245C00FB689B687B617B6923F47F437B613B68F2
:10246C001A027B681A43BB6813437A6913437B6176
:10247C00FB687A699A6000BF1C37BD4680BC704708
:10248C0080B485B000AF786039607B6893F83C30DD
:10249C00012B01D1022341E07B68012283F83C200F
:1024AC007B68022283F83D207B681B685B68FB60BD
:1024BC007B681B689B68BB60FB6823F07003FB6048
:1024CC003B681B68FA681343FB607B681B68FA68FF
:1024DC005A607B681B68144A934209D07B681B685E
:1024EC00B3F1804F04D07B681B68104A93420CD127
:1024FC00BB6823F08003BB603B685B68BA6813431E
:10250C00BB607B681B68BA689A607B68012283F8A1
:10251C003D207B68002283F83C20002318461437AA
:10252C00BD4680BC704700BF002C01400004004039
:10253C0080B483B000AF786000BF0C37BD4680BC60
:10254C00704780B483B000AF786000BF0C37BD46D5
:10255C0080BC704770B500260C4D0D4C641BA4104C
:10256C00A64209D100F022F800260A4D0A4C641B41
:10257C00A410A64205D170BD55F8043B984701360E
:10258C00EEE755F8043B98470136F2E7F4250008CE
:10259C00F4250008F4250008F82500080346024439
:1025AC00934200D1704703F8011BF9E7F8B500BF5F
:1025BC00F8BC08BC9E467047F8B500BFF8BC08BC18
:0425CC009E46704770
:1025D00000000000000000000102030406070809D3
:1025E00002030405060708090A0B0C0D0E0F101054
:0425F00001020000E4
:0425F40031010008A9
:0425F8000D010008C9
:1025FC000A000000183C66667E66666600127A0069
:08260C001000000001000000B5
:0400000508000F6D73
:00000001FF
